{
  "address": "0xa513E6E4b8f2a923D98304ec87F64353C4D5C853",
  "abi": [
    {
      "inputs": [
        {
          "internalType": "address",
          "name": "vrfCoordinatorV2",
          "type": "address"
        },
        {
          "internalType": "uint256",
          "name": "entranceFee",
          "type": "uint256"
        },
        {
          "internalType": "bytes32",
          "name": "gasLane",
          "type": "bytes32"
        },
        {
          "internalType": "uint64",
          "name": "suscripcionId",
          "type": "uint64"
        },
        {
          "internalType": "uint16",
          "name": "callbackGasLimit",
          "type": "uint16"
        },
        {
          "internalType": "uint256",
          "name": "interval",
          "type": "uint256"
        }
      ],
      "stateMutability": "nonpayable",
      "type": "constructor"
    },
    {
      "inputs": [
        {
          "internalType": "address",
          "name": "have",
          "type": "address"
        },
        {
          "internalType": "address",
          "name": "want",
          "type": "address"
        }
      ],
      "name": "OnlyCoordinatorCanFulfill",
      "type": "error"
    },
    {
      "inputs": [],
      "name": "Raffle__NotEnoughETHEntered",
      "type": "error"
    },
    {
      "inputs": [],
      "name": "Raffle__RaffleNotOpen",
      "type": "error"
    },
    {
      "inputs": [],
      "name": "Raffle__TransferFailed",
      "type": "error"
    },
    {
      "inputs": [
        {
          "internalType": "uint256",
          "name": "currentBalance",
          "type": "uint256"
        },
        {
          "internalType": "uint256",
          "name": "numPlayers",
          "type": "uint256"
        },
        {
          "internalType": "uint256",
          "name": "raffeState",
          "type": "uint256"
        }
      ],
      "name": "Raffle__UpkeepNotNeeded",
      "type": "error"
    },
    {
      "anonymous": false,
      "inputs": [
        {
          "indexed": true,
          "internalType": "address",
          "name": "player",
          "type": "address"
        }
      ],
      "name": "RaffleEnter",
      "type": "event"
    },
    {
      "anonymous": false,
      "inputs": [
        {
          "indexed": true,
          "internalType": "uint256",
          "name": "requestId",
          "type": "uint256"
        }
      ],
      "name": "RequestedRaffleWinner",
      "type": "event"
    },
    {
      "anonymous": false,
      "inputs": [
        {
          "indexed": true,
          "internalType": "address",
          "name": "winner",
          "type": "address"
        }
      ],
      "name": "WinnerPicked",
      "type": "event"
    },
    {
      "stateMutability": "payable",
      "type": "fallback"
    },
    {
      "inputs": [
        {
          "internalType": "bytes",
          "name": "",
          "type": "bytes"
        }
      ],
      "name": "checkUpkeep",
      "outputs": [
        {
          "internalType": "bool",
          "name": "upkeepNeeded",
          "type": "bool"
        },
        {
          "internalType": "bytes",
          "name": "",
          "type": "bytes"
        }
      ],
      "stateMutability": "nonpayable",
      "type": "function"
    },
    {
      "inputs": [
        {
          "internalType": "uint256",
          "name": "numeroJugado",
          "type": "uint256"
        }
      ],
      "name": "enterRaffle",
      "outputs": [],
      "stateMutability": "payable",
      "type": "function"
    },
    {
      "inputs": [],
      "name": "getCantidadGanada",
      "outputs": [
        {
          "internalType": "uint256",
          "name": "",
          "type": "uint256"
        }
      ],
      "stateMutability": "view",
      "type": "function"
    },
    {
      "inputs": [],
      "name": "getEntranceFee",
      "outputs": [
        {
          "internalType": "uint256",
          "name": "",
          "type": "uint256"
        }
      ],
      "stateMutability": "view",
      "type": "function"
    },
    {
      "inputs": [],
      "name": "getInterval",
      "outputs": [
        {
          "internalType": "uint256",
          "name": "",
          "type": "uint256"
        }
      ],
      "stateMutability": "view",
      "type": "function"
    },
    {
      "inputs": [],
      "name": "getLastTimeStamp",
      "outputs": [
        {
          "internalType": "uint256",
          "name": "",
          "type": "uint256"
        }
      ],
      "stateMutability": "view",
      "type": "function"
    },
    {
      "inputs": [],
      "name": "getListadoDeGanadores",
      "outputs": [
        {
          "internalType": "address[]",
          "name": "",
          "type": "address[]"
        }
      ],
      "stateMutability": "view",
      "type": "function"
    },
    {
      "inputs": [],
      "name": "getListadoJugadores",
      "outputs": [
        {
          "internalType": "address[]",
          "name": "",
          "type": "address[]"
        }
      ],
      "stateMutability": "view",
      "type": "function"
    },
    {
      "inputs": [],
      "name": "getNumWords",
      "outputs": [
        {
          "internalType": "uint256",
          "name": "",
          "type": "uint256"
        }
      ],
      "stateMutability": "pure",
      "type": "function"
    },
    {
      "inputs": [],
      "name": "getNumberOfPlayers",
      "outputs": [
        {
          "internalType": "uint256",
          "name": "",
          "type": "uint256"
        }
      ],
      "stateMutability": "view",
      "type": "function"
    },
    {
      "inputs": [],
      "name": "getNumeroGanador",
      "outputs": [
        {
          "internalType": "uint256",
          "name": "",
          "type": "uint256"
        }
      ],
      "stateMutability": "view",
      "type": "function"
    },
    {
      "inputs": [
        {
          "internalType": "address",
          "name": "direccionJugador",
          "type": "address"
        }
      ],
      "name": "getNumeroJugadoPorAddress",
      "outputs": [
        {
          "internalType": "uint256",
          "name": "",
          "type": "uint256"
        }
      ],
      "stateMutability": "view",
      "type": "function"
    },
    {
      "inputs": [],
      "name": "getNumerosJugados",
      "outputs": [
        {
          "internalType": "uint256[]",
          "name": "",
          "type": "uint256[]"
        }
      ],
      "stateMutability": "view",
      "type": "function"
    },
    {
      "inputs": [
        {
          "internalType": "uint256",
          "name": "index",
          "type": "uint256"
        }
      ],
      "name": "getPlayer",
      "outputs": [
        {
          "internalType": "address",
          "name": "",
          "type": "address"
        }
      ],
      "stateMutability": "view",
      "type": "function"
    },
    {
      "inputs": [],
      "name": "getRaffleState",
      "outputs": [
        {
          "internalType": "enum Raffle.RaffleState",
          "name": "",
          "type": "uint8"
        }
      ],
      "stateMutability": "view",
      "type": "function"
    },
    {
      "inputs": [],
      "name": "getRequestConfirmation",
      "outputs": [
        {
          "internalType": "uint256",
          "name": "",
          "type": "uint256"
        }
      ],
      "stateMutability": "pure",
      "type": "function"
    },
    {
      "inputs": [
        {
          "internalType": "bytes",
          "name": "",
          "type": "bytes"
        }
      ],
      "name": "performUpkeep",
      "outputs": [],
      "stateMutability": "nonpayable",
      "type": "function"
    },
    {
      "inputs": [
        {
          "internalType": "uint256",
          "name": "requestId",
          "type": "uint256"
        },
        {
          "internalType": "uint256[]",
          "name": "randomWords",
          "type": "uint256[]"
        }
      ],
      "name": "rawFulfillRandomWords",
      "outputs": [],
      "stateMutability": "nonpayable",
      "type": "function"
    },
    {
      "stateMutability": "payable",
      "type": "receive"
    }
  ],
  "transactionHash": "0xa6b85bc1c2afd4b544b39a06fb7a8fed2a5894ece9b7c762d55c875ffcae9f46",
  "args": [
    "0x5FbDB2315678afecb367f032d93F642f64180aa3",
    "10000000000000000",
    "0xd89b2bf150e3b9e13446986e571fb9cab24b13cea0a43ea20a6049a85cc807cc",
    "2",
    "50000",
    "30"
  ],
  "numDeployments": 2,
  "solcInputHash": "1e06c4a41bc45cebf64ed7276d86b3b3",
  "bytecode": "0x6101606040523480156200001257600080fd5b50604051620020da380380620020da83398181016040528101906200003891906200028e565b858073ffffffffffffffffffffffffffffffffffffffff1660808173ffffffffffffffffffffffffffffffffffffffff1681525050508460a081815250508573ffffffffffffffffffffffffffffffffffffffff1660c08173ffffffffffffffffffffffffffffffffffffffff16815250508360e081815250508267ffffffffffffffff166101008167ffffffffffffffff16815250508161ffff166101208161ffff16815250506000600460006101000a81548160ff021916908360018111156200010957620001086200032a565b5b02179055504260058190555080610140818152505050505050505062000359565b600080fd5b600073ffffffffffffffffffffffffffffffffffffffff82169050919050565b60006200015c826200012f565b9050919050565b6200016e816200014f565b81146200017a57600080fd5b50565b6000815190506200018e8162000163565b92915050565b6000819050919050565b620001a98162000194565b8114620001b557600080fd5b50565b600081519050620001c9816200019e565b92915050565b6000819050919050565b620001e481620001cf565b8114620001f057600080fd5b50565b6000815190506200020481620001d9565b92915050565b600067ffffffffffffffff82169050919050565b62000229816200020a565b81146200023557600080fd5b50565b60008151905062000249816200021e565b92915050565b600061ffff82169050919050565b62000268816200024f565b81146200027457600080fd5b50565b60008151905062000288816200025d565b92915050565b60008060008060008060c08789031215620002ae57620002ad6200012a565b5b6000620002be89828a016200017d565b9650506020620002d189828a01620001b8565b9550506040620002e489828a01620001f3565b9450506060620002f789828a0162000238565b93505060806200030a89828a0162000277565b92505060a06200031d89828a01620001b8565b9150509295509295509295565b7f4e487b7100000000000000000000000000000000000000000000000000000000600052602160045260246000fd5b60805160a05160c05160e051610100516101205161014051611d11620003c96000396000818161097101526109df015260006108660152600061084301526000610822015260006107e6015260008181610444015261054101526000818161048101526104d50152611d116000f3fe60806040526004361061010d5760003560e01c8063a0bda26511610095578063cc37dcae11610064578063cc37dcae14610345578063cd53c07214610370578063e55ae4e8146103ad578063e6639cbf146103ea578063fd6673f51461041557610114565b8063a0bda26514610299578063ac6c01d1146102c4578063c1c244e8146102ef578063ca6a9ef81461031a57610114565b80634585e33b116100dc5780634585e33b146101b157806353a2c19a146101da5780636e04ff0d1461020557806391ad27b4146102435780639eb471ae1461026e57610114565b806309bc33a714610116578063115cbaf5146101415780631fe543e31461016c5780632e519f901461019557610114565b3661011457005b005b34801561012257600080fd5b5061012b610440565b604051610138919061119a565b60405180910390f35b34801561014d57600080fd5b50610156610468565b604051610163919061122c565b60405180910390f35b34801561017857600080fd5b50610193600480360381019061018e91906113e0565b61047f565b005b6101af60048036038101906101aa919061143c565b61053f565b005b3480156101bd57600080fd5b506101d860048036038101906101d391906114c4565b61072e565b005b3480156101e657600080fd5b506101ef61091f565b6040516101fc919061119a565b60405180910390f35b34801561021157600080fd5b5061022c600480360381019061022791906115c6565b61092e565b60405161023a9291906116a9565b60405180910390f35b34801561024f57600080fd5b506102586109db565b604051610265919061119a565b60405180910390f35b34801561027a57600080fd5b50610283610a03565b60405161029091906117c9565b60405180910390f35b3480156102a557600080fd5b506102ae610a91565b6040516102bb91906117c9565b60405180910390f35b3480156102d057600080fd5b506102d9610b1f565b6040516102e6919061119a565b60405180910390f35b3480156102fb57600080fd5b50610304610b29565b604051610311919061119a565b60405180910390f35b34801561032657600080fd5b5061032f610b33565b60405161033c919061119a565b60405180910390f35b34801561035157600080fd5b5061035a610b40565b60405161036791906118a9565b60405180910390f35b34801561037c57600080fd5b50610397600480360381019061039291906118f7565b610b98565b6040516103a4919061119a565b60405180910390f35b3480156103b957600080fd5b506103d460048036038101906103cf919061143c565b610be1565b6040516103e19190611933565b60405180910390f35b3480156103f657600080fd5b506103ff610c28565b60405161040c919061119a565b60405180910390f35b34801561042157600080fd5b5061042a610c32565b604051610437919061119a565b60405180910390f35b60007f0000000000000000000000000000000000000000000000000000000000000000905090565b6000600460009054906101000a900460ff16905090565b7f000000000000000000000000000000000000000000000000000000000000000073ffffffffffffffffffffffffffffffffffffffff163373ffffffffffffffffffffffffffffffffffffffff161461053157337f00000000000000000000000000000000000000000000000000000000000000006040517f1cf993f400000000000000000000000000000000000000000000000000000000815260040161052892919061194e565b60405180910390fd5b61053b8282610c3e565b5050565b7f0000000000000000000000000000000000000000000000000000000000000000341015610599576040517fbd4e069500000000000000000000000000000000000000000000000000000000815260040160405180910390fd5b600060018111156105ad576105ac6111b5565b5b600460009054906101000a900460ff1660018111156105cf576105ce6111b5565b5b14610606576040517fd24a271400000000000000000000000000000000000000000000000000000000815260040160405180910390fd5b6000339080600181540180825580915050600190039060005260206000200160009091909190916101000a81548173ffffffffffffffffffffffffffffffffffffffff021916908373ffffffffffffffffffffffffffffffffffffffff160217905550600181908060018154018082558091505060019003906000526020600020016000909190919091505580600360003373ffffffffffffffffffffffffffffffffffffffff1673ffffffffffffffffffffffffffffffffffffffff16815260200190815260200160002060008282546106e191906119a6565b925050819055503373ffffffffffffffffffffffffffffffffffffffff167f0805e1d667bddb8a95f0f09880cf94f403fb596ce79928d9f29b74203ba284d460405160405180910390a250565b60006107486040518060200160405280600081525061092e565b509050806107b75747600080549050600460009054906101000a900460ff166001811115610779576107786111b5565b5b6040517f584327aa0000000000000000000000000000000000000000000000000000000081526004016107ae939291906119da565b60405180910390fd5b6001600460006101000a81548160ff021916908360018111156107dd576107dc6111b5565b5b021790555060007f000000000000000000000000000000000000000000000000000000000000000073ffffffffffffffffffffffffffffffffffffffff16635d3b1d307f00000000000000000000000000000000000000000000000000000000000000007f000000000000000000000000000000000000000000000000000000000000000060037f000000000000000000000000000000000000000000000000000000000000000060026040518663ffffffff1660e01b81526004016108a7959493929190611ac4565b6020604051808303816000875af11580156108c6573d6000803e3d6000fd5b505050506040513d601f19601f820116820180604052508101906108ea9190611b2c565b9050807fcd6e45c8998311cab7e9d4385596cac867e20a0587194b954fa3a731c93ce78b60405160405180910390a250505050565b6000600263ffffffff16905090565b600060606000600460009054906101000a900460ff166001811115610956576109556111b5565b5b6000600181111561096a576109696111b5565b5b14905060007f00000000000000000000000000000000000000000000000000000000000000006005544261099e9190611b59565b119050600080600080549050119050600080471190508280156109be5750835b80156109c75750805b80156109d05750815b955050505050915091565b60007f0000000000000000000000000000000000000000000000000000000000000000905090565b60606002805480602002602001604051908101604052809291908181526020018280548015610a8757602002820191906000526020600020905b8160009054906101000a900473ffffffffffffffffffffffffffffffffffffffff1673ffffffffffffffffffffffffffffffffffffffff1681526020019060010190808311610a3d575b5050505050905090565b60606000805480602002602001604051908101604052809291908181526020018280548015610b1557602002820191906000526020600020905b8160009054906101000a900473ffffffffffffffffffffffffffffffffffffffff1673ffffffffffffffffffffffffffffffffffffffff1681526020019060010190808311610acb575b5050505050905090565b6000600654905090565b6000600554905090565b6000600361ffff16905090565b60606001805480602002602001604051908101604052809291908181526020018280548015610b8e57602002820191906000526020600020905b815481526020019060010190808311610b7a575b5050505050905090565b6000600360008373ffffffffffffffffffffffffffffffffffffffff1673ffffffffffffffffffffffffffffffffffffffff168152602001908152602001600020549050919050565b6000808281548110610bf657610bf5611b8d565b5b9060005260206000200160009054906101000a900473ffffffffffffffffffffffffffffffffffffffff169050919050565b6000600754905090565b60008080549050905090565b6000600a82600081518110610c5657610c55611b8d565b5b6020026020010151610c689190611beb565b90506002811015610ca657600a82600181518110610c8957610c88611b8d565b5b6020026020010151610c9b9190611beb565b600781905550610cd5565b606482600181518110610cbc57610cbb611b8d565b5b6020026020010151610cce9190611beb565b6007819055505b600067ffffffffffffffff811115610cf057610cef61129d565b5b604051908082528060200260200182016040528015610d1e5781602001602082028036833780820191505090505b5060029080519060200190610d349291906110da565b50600080805480602002602001604051908101604052809291908181526020018280548015610db857602002820191906000526020600020905b8160009054906101000a900473ffffffffffffffffffffffffffffffffffffffff1673ffffffffffffffffffffffffffffffffffffffff1681526020019060010190808311610d6e575b5050505050905060005b8151811015610e79576000828281518110610de057610ddf611b8d565b5b602002602001015190506000610df582610b98565b90506007548103610e64576002829080600181540180825580915050600190039060005260206000200160009091909190916101000a81548173ffffffffffffffffffffffffffffffffffffffff021916908373ffffffffffffffffffffffffffffffffffffffff1602179055505b50508080610e7190611c1c565b915050610dc2565b5060006002805480602002602001604051908101604052809291908181526020018280548015610efe57602002820191906000526020600020905b8160009054906101000a900473ffffffffffffffffffffffffffffffffffffffff1673ffffffffffffffffffffffffffffffffffffffff1681526020019060010190808311610eb4575b50505050509050805147610f129190611c64565b60068190555060005b8151811015611040576000828281518110610f3957610f38611b8d565b5b6020026020010151905060008173ffffffffffffffffffffffffffffffffffffffff16600654604051610f6b90611cc6565b60006040518083038185875af1925050503d8060008114610fa8576040519150601f19603f3d011682016040523d82523d6000602084013e610fad565b606091505b5050905080610fe8576040517fa1d04b3900000000000000000000000000000000000000000000000000000000815260040160405180910390fd5b8173ffffffffffffffffffffffffffffffffffffffff167f5b690ec4a06fe979403046eaeea5b3ce38524683c3001f662c8b5a829632f7df60405160405180910390a25050808061103890611c1c565b915050610f1b565b50600067ffffffffffffffff81111561105c5761105b61129d565b5b60405190808252806020026020018201604052801561108a5781602001602082028036833780820191505090505b50600090805190602001906110a09291906110da565b50426005819055506000600460006101000a81548160ff021916908360018111156110ce576110cd6111b5565b5b02179055505050505050565b828054828255906000526020600020908101928215611153579160200282015b828111156111525782518260006101000a81548173ffffffffffffffffffffffffffffffffffffffff021916908373ffffffffffffffffffffffffffffffffffffffff160217905550916020019190600101906110fa565b5b5090506111609190611164565b5090565b5b8082111561117d576000816000905550600101611165565b5090565b6000819050919050565b61119481611181565b82525050565b60006020820190506111af600083018461118b565b92915050565b7f4e487b7100000000000000000000000000000000000000000000000000000000600052602160045260246000fd5b600281106111f5576111f46111b5565b5b50565b6000819050611206826111e4565b919050565b6000611216826111f8565b9050919050565b6112268161120b565b82525050565b6000602082019050611241600083018461121d565b92915050565b6000604051905090565b600080fd5b600080fd5b61126481611181565b811461126f57600080fd5b50565b6000813590506112818161125b565b92915050565b600080fd5b6000601f19601f8301169050919050565b7f4e487b7100000000000000000000000000000000000000000000000000000000600052604160045260246000fd5b6112d58261128c565b810181811067ffffffffffffffff821117156112f4576112f361129d565b5b80604052505050565b6000611307611247565b905061131382826112cc565b919050565b600067ffffffffffffffff8211156113335761133261129d565b5b602082029050602081019050919050565b600080fd5b600061135c61135784611318565b6112fd565b9050808382526020820190506020840283018581111561137f5761137e611344565b5b835b818110156113a857806113948882611272565b845260208401935050602081019050611381565b5050509392505050565b600082601f8301126113c7576113c6611287565b5b81356113d7848260208601611349565b91505092915050565b600080604083850312156113f7576113f6611251565b5b600061140585828601611272565b925050602083013567ffffffffffffffff81111561142657611425611256565b5b611432858286016113b2565b9150509250929050565b60006020828403121561145257611451611251565b5b600061146084828501611272565b91505092915050565b600080fd5b60008083601f84011261148457611483611287565b5b8235905067ffffffffffffffff8111156114a1576114a0611469565b5b6020830191508360018202830111156114bd576114bc611344565b5b9250929050565b600080602083850312156114db576114da611251565b5b600083013567ffffffffffffffff8111156114f9576114f8611256565b5b6115058582860161146e565b92509250509250929050565b600080fd5b600067ffffffffffffffff8211156115315761153061129d565b5b61153a8261128c565b9050602081019050919050565b82818337600083830152505050565b600061156961156484611516565b6112fd565b90508281526020810184848401111561158557611584611511565b5b611590848285611547565b509392505050565b600082601f8301126115ad576115ac611287565b5b81356115bd848260208601611556565b91505092915050565b6000602082840312156115dc576115db611251565b5b600082013567ffffffffffffffff8111156115fa576115f9611256565b5b61160684828501611598565b91505092915050565b60008115159050919050565b6116248161160f565b82525050565b600081519050919050565b600082825260208201905092915050565b60005b83811015611664578082015181840152602081019050611649565b60008484015250505050565b600061167b8261162a565b6116858185611635565b9350611695818560208601611646565b61169e8161128c565b840191505092915050565b60006040820190506116be600083018561161b565b81810360208301526116d08184611670565b90509392505050565b600081519050919050565b600082825260208201905092915050565b6000819050602082019050919050565b600073ffffffffffffffffffffffffffffffffffffffff82169050919050565b600061173082611705565b9050919050565b61174081611725565b82525050565b60006117528383611737565b60208301905092915050565b6000602082019050919050565b6000611776826116d9565b61178081856116e4565b935061178b836116f5565b8060005b838110156117bc5781516117a38882611746565b97506117ae8361175e565b92505060018101905061178f565b5085935050505092915050565b600060208201905081810360008301526117e3818461176b565b905092915050565b600081519050919050565b600082825260208201905092915050565b6000819050602082019050919050565b61182081611181565b82525050565b60006118328383611817565b60208301905092915050565b6000602082019050919050565b6000611856826117eb565b61186081856117f6565b935061186b83611807565b8060005b8381101561189c5781516118838882611826565b975061188e8361183e565b92505060018101905061186f565b5085935050505092915050565b600060208201905081810360008301526118c3818461184b565b905092915050565b6118d481611725565b81146118df57600080fd5b50565b6000813590506118f1816118cb565b92915050565b60006020828403121561190d5761190c611251565b5b600061191b848285016118e2565b91505092915050565b61192d81611725565b82525050565b60006020820190506119486000830184611924565b92915050565b60006040820190506119636000830185611924565b6119706020830184611924565b9392505050565b7f4e487b7100000000000000000000000000000000000000000000000000000000600052601160045260246000fd5b60006119b182611181565b91506119bc83611181565b92508282019050808211156119d4576119d3611977565b5b92915050565b60006060820190506119ef600083018661118b565b6119fc602083018561118b565b611a09604083018461118b565b949350505050565b6000819050919050565b611a2481611a11565b82525050565b600067ffffffffffffffff82169050919050565b611a4781611a2a565b82525050565b600061ffff82169050919050565b611a6481611a4d565b82525050565b600063ffffffff82169050919050565b6000819050919050565b6000611a9f611a9a611a9584611a4d565b611a7a565b611a6a565b9050919050565b611aaf81611a84565b82525050565b611abe81611a6a565b82525050565b600060a082019050611ad96000830188611a1b565b611ae66020830187611a3e565b611af36040830186611a5b565b611b006060830185611aa6565b611b0d6080830184611ab5565b9695505050505050565b600081519050611b268161125b565b92915050565b600060208284031215611b4257611b41611251565b5b6000611b5084828501611b17565b91505092915050565b6000611b6482611181565b9150611b6f83611181565b9250828203905081811115611b8757611b86611977565b5b92915050565b7f4e487b7100000000000000000000000000000000000000000000000000000000600052603260045260246000fd5b7f4e487b7100000000000000000000000000000000000000000000000000000000600052601260045260246000fd5b6000611bf682611181565b9150611c0183611181565b925082611c1157611c10611bbc565b5b828206905092915050565b6000611c2782611181565b91507fffffffffffffffffffffffffffffffffffffffffffffffffffffffffffffffff8203611c5957611c58611977565b5b600182019050919050565b6000611c6f82611181565b9150611c7a83611181565b925082611c8a57611c89611bbc565b5b828204905092915050565b600081905092915050565b50565b6000611cb0600083611c95565b9150611cbb82611ca0565b600082019050919050565b6000611cd182611ca3565b915081905091905056fea26469706673582212203d1122c8c0c773362ecbdc07010a63499ecbd952cbd042d365a729031ed249e764736f6c63430008110033",
  "devdoc": {
    "author": "yoel torres",
    "details": "este implementa chainlink coordinator y chainlik keeper   ",
    "kind": "dev",
    "methods": {
      "checkUpkeep(bytes)": {
        "details": "Esta la funcion que chainlink keeper nodes llaman para ver si 'Upkeepneed' retorna un true. necesita devolver un true, para que me genere otro numero aleatorio. Se debe de cumplir lo siguiente para que sea true: 1- El tiempo de intervalo deberia pasar. 2- La loteria deberia tener al menos 1 jugador,  y tener algunos eth 3- Nuestra subscricion tiene link de fondos 4- La loteria deberia esta en estado \"abierto\", si queremos participar de esta loteria."
      }
    },
    "title": "Proyecto de lotteria decentralizada",
    "version": 1
  },
  "userdoc": {
    "kind": "user",
    "methods": {},
    "notice": "Este contrato es para crear un proyecto personal de lotteria decentralizada",
    "version": 1
  },
  "storageLayout": {
    "storage": [
      {
        "astId": 208,
        "contract": "contracts/Raffle.sol:Raffle",
        "label": "s_players",
        "offset": 0,
        "slot": "0",
        "type": "t_array(t_address)dyn_storage"
      },
      {
        "astId": 211,
        "contract": "contracts/Raffle.sol:Raffle",
        "label": "s_numeros_jugados",
        "offset": 0,
        "slot": "1",
        "type": "t_array(t_uint256)dyn_storage"
      },
      {
        "astId": 214,
        "contract": "contracts/Raffle.sol:Raffle",
        "label": "s_players_winners",
        "offset": 0,
        "slot": "2",
        "type": "t_array(t_address)dyn_storage"
      },
      {
        "astId": 218,
        "contract": "contracts/Raffle.sol:Raffle",
        "label": "s_addressToNumeroJugado",
        "offset": 0,
        "slot": "3",
        "type": "t_mapping(t_address,t_uint256)"
      },
      {
        "astId": 236,
        "contract": "contracts/Raffle.sol:Raffle",
        "label": "s_rafflestate",
        "offset": 0,
        "slot": "4",
        "type": "t_enum(RaffleState)203"
      },
      {
        "astId": 238,
        "contract": "contracts/Raffle.sol:Raffle",
        "label": "s_lastTimeStamp",
        "offset": 0,
        "slot": "5",
        "type": "t_uint256"
      },
      {
        "astId": 242,
        "contract": "contracts/Raffle.sol:Raffle",
        "label": "cantidadGanadaPorJugador",
        "offset": 0,
        "slot": "6",
        "type": "t_uint256"
      },
      {
        "astId": 244,
        "contract": "contracts/Raffle.sol:Raffle",
        "label": "numeroGanador",
        "offset": 0,
        "slot": "7",
        "type": "t_uint256"
      }
    ],
    "types": {
      "t_address": {
        "encoding": "inplace",
        "label": "address",
        "numberOfBytes": "20"
      },
      "t_array(t_address)dyn_storage": {
        "base": "t_address",
        "encoding": "dynamic_array",
        "label": "address[]",
        "numberOfBytes": "32"
      },
      "t_array(t_uint256)dyn_storage": {
        "base": "t_uint256",
        "encoding": "dynamic_array",
        "label": "uint256[]",
        "numberOfBytes": "32"
      },
      "t_enum(RaffleState)203": {
        "encoding": "inplace",
        "label": "enum Raffle.RaffleState",
        "numberOfBytes": "1"
      },
      "t_mapping(t_address,t_uint256)": {
        "encoding": "mapping",
        "key": "t_address",
        "label": "mapping(address => uint256)",
        "numberOfBytes": "32",
        "value": "t_uint256"
      },
      "t_uint256": {
        "encoding": "inplace",
        "label": "uint256",
        "numberOfBytes": "32"
      }
    }
  }
}